{
  "_format": "hh-sol-artifact-1",
  "contractName": "SkillChainCert",
  "sourceName": "contracts/SkillChainCert.sol",
  "abi": [
    {
      "inputs": [],
      "stateMutability": "nonpayable",
      "type": "constructor"
    },
    {
      "inputs": [
        {
          "internalType": "address",
          "name": "sender",
          "type": "address"
        },
        {
          "internalType": "uint256",
          "name": "tokenId",
          "type": "uint256"
        },
        {
          "internalType": "address",
          "name": "owner",
          "type": "address"
        }
      ],
      "name": "ERC721IncorrectOwner",
      "type": "error"
    },
    {
      "inputs": [
        {
          "internalType": "address",
          "name": "operator",
          "type": "address"
        },
        {
          "internalType": "uint256",
          "name": "tokenId",
          "type": "uint256"
        }
      ],
      "name": "ERC721InsufficientApproval",
      "type": "error"
    },
    {
      "inputs": [
        {
          "internalType": "address",
          "name": "approver",
          "type": "address"
        }
      ],
      "name": "ERC721InvalidApprover",
      "type": "error"
    },
    {
      "inputs": [
        {
          "internalType": "address",
          "name": "operator",
          "type": "address"
        }
      ],
      "name": "ERC721InvalidOperator",
      "type": "error"
    },
    {
      "inputs": [
        {
          "internalType": "address",
          "name": "owner",
          "type": "address"
        }
      ],
      "name": "ERC721InvalidOwner",
      "type": "error"
    },
    {
      "inputs": [
        {
          "internalType": "address",
          "name": "receiver",
          "type": "address"
        }
      ],
      "name": "ERC721InvalidReceiver",
      "type": "error"
    },
    {
      "inputs": [
        {
          "internalType": "address",
          "name": "sender",
          "type": "address"
        }
      ],
      "name": "ERC721InvalidSender",
      "type": "error"
    },
    {
      "inputs": [
        {
          "internalType": "uint256",
          "name": "tokenId",
          "type": "uint256"
        }
      ],
      "name": "ERC721NonexistentToken",
      "type": "error"
    },
    {
      "inputs": [
        {
          "internalType": "address",
          "name": "owner",
          "type": "address"
        }
      ],
      "name": "OwnableInvalidOwner",
      "type": "error"
    },
    {
      "inputs": [
        {
          "internalType": "address",
          "name": "account",
          "type": "address"
        }
      ],
      "name": "OwnableUnauthorizedAccount",
      "type": "error"
    },
    {
      "inputs": [
        {
          "internalType": "uint256",
          "name": "value",
          "type": "uint256"
        },
        {
          "internalType": "uint256",
          "name": "length",
          "type": "uint256"
        }
      ],
      "name": "StringsInsufficientHexLength",
      "type": "error"
    },
    {
      "anonymous": false,
      "inputs": [
        {
          "indexed": true,
          "internalType": "address",
          "name": "owner",
          "type": "address"
        },
        {
          "indexed": true,
          "internalType": "address",
          "name": "approved",
          "type": "address"
        },
        {
          "indexed": true,
          "internalType": "uint256",
          "name": "tokenId",
          "type": "uint256"
        }
      ],
      "name": "Approval",
      "type": "event"
    },
    {
      "anonymous": false,
      "inputs": [
        {
          "indexed": true,
          "internalType": "address",
          "name": "owner",
          "type": "address"
        },
        {
          "indexed": true,
          "internalType": "address",
          "name": "operator",
          "type": "address"
        },
        {
          "indexed": false,
          "internalType": "bool",
          "name": "approved",
          "type": "bool"
        }
      ],
      "name": "ApprovalForAll",
      "type": "event"
    },
    {
      "anonymous": false,
      "inputs": [
        {
          "indexed": true,
          "internalType": "uint256",
          "name": "tokenId",
          "type": "uint256"
        },
        {
          "indexed": true,
          "internalType": "address",
          "name": "learner",
          "type": "address"
        },
        {
          "indexed": false,
          "internalType": "string",
          "name": "topic",
          "type": "string"
        },
        {
          "indexed": false,
          "internalType": "uint8",
          "name": "score",
          "type": "uint8"
        }
      ],
      "name": "CertificateMinted",
      "type": "event"
    },
    {
      "anonymous": false,
      "inputs": [
        {
          "indexed": true,
          "internalType": "address",
          "name": "previousOwner",
          "type": "address"
        },
        {
          "indexed": true,
          "internalType": "address",
          "name": "newOwner",
          "type": "address"
        }
      ],
      "name": "OwnershipTransferred",
      "type": "event"
    },
    {
      "anonymous": false,
      "inputs": [
        {
          "indexed": true,
          "internalType": "address",
          "name": "from",
          "type": "address"
        },
        {
          "indexed": true,
          "internalType": "address",
          "name": "to",
          "type": "address"
        },
        {
          "indexed": true,
          "internalType": "uint256",
          "name": "tokenId",
          "type": "uint256"
        }
      ],
      "name": "Transfer",
      "type": "event"
    },
    {
      "inputs": [
        {
          "internalType": "address",
          "name": "to",
          "type": "address"
        },
        {
          "internalType": "uint256",
          "name": "tokenId",
          "type": "uint256"
        }
      ],
      "name": "approve",
      "outputs": [],
      "stateMutability": "nonpayable",
      "type": "function"
    },
    {
      "inputs": [
        {
          "internalType": "address",
          "name": "owner",
          "type": "address"
        }
      ],
      "name": "balanceOf",
      "outputs": [
        {
          "internalType": "uint256",
          "name": "",
          "type": "uint256"
        }
      ],
      "stateMutability": "view",
      "type": "function"
    },
    {
      "inputs": [
        {
          "internalType": "uint256",
          "name": "",
          "type": "uint256"
        }
      ],
      "name": "certificates",
      "outputs": [
        {
          "internalType": "string",
          "name": "topic",
          "type": "string"
        },
        {
          "internalType": "string",
          "name": "difficulty",
          "type": "string"
        },
        {
          "internalType": "uint8",
          "name": "score",
          "type": "uint8"
        },
        {
          "internalType": "uint256",
          "name": "issuedAt",
          "type": "uint256"
        },
        {
          "internalType": "address",
          "name": "learner",
          "type": "address"
        }
      ],
      "stateMutability": "view",
      "type": "function"
    },
    {
      "inputs": [
        {
          "internalType": "uint256",
          "name": "tokenId",
          "type": "uint256"
        }
      ],
      "name": "getApproved",
      "outputs": [
        {
          "internalType": "address",
          "name": "",
          "type": "address"
        }
      ],
      "stateMutability": "view",
      "type": "function"
    },
    {
      "inputs": [
        {
          "internalType": "address",
          "name": "learner",
          "type": "address"
        }
      ],
      "name": "getCertsByLearner",
      "outputs": [
        {
          "internalType": "uint256[]",
          "name": "",
          "type": "uint256[]"
        }
      ],
      "stateMutability": "view",
      "type": "function"
    },
    {
      "inputs": [
        {
          "internalType": "address",
          "name": "owner",
          "type": "address"
        },
        {
          "internalType": "address",
          "name": "operator",
          "type": "address"
        }
      ],
      "name": "isApprovedForAll",
      "outputs": [
        {
          "internalType": "bool",
          "name": "",
          "type": "bool"
        }
      ],
      "stateMutability": "view",
      "type": "function"
    },
    {
      "inputs": [
        {
          "internalType": "address",
          "name": "",
          "type": "address"
        },
        {
          "internalType": "uint256",
          "name": "",
          "type": "uint256"
        }
      ],
      "name": "learnerCerts",
      "outputs": [
        {
          "internalType": "uint256",
          "name": "",
          "type": "uint256"
        }
      ],
      "stateMutability": "view",
      "type": "function"
    },
    {
      "inputs": [
        {
          "internalType": "address",
          "name": "learner",
          "type": "address"
        },
        {
          "internalType": "string",
          "name": "topic",
          "type": "string"
        },
        {
          "internalType": "string",
          "name": "difficulty",
          "type": "string"
        },
        {
          "internalType": "uint8",
          "name": "score",
          "type": "uint8"
        }
      ],
      "name": "mintCertificate",
      "outputs": [
        {
          "internalType": "uint256",
          "name": "",
          "type": "uint256"
        }
      ],
      "stateMutability": "nonpayable",
      "type": "function"
    },
    {
      "inputs": [],
      "name": "name",
      "outputs": [
        {
          "internalType": "string",
          "name": "",
          "type": "string"
        }
      ],
      "stateMutability": "view",
      "type": "function"
    },
    {
      "inputs": [],
      "name": "owner",
      "outputs": [
        {
          "internalType": "address",
          "name": "",
          "type": "address"
        }
      ],
      "stateMutability": "view",
      "type": "function"
    },
    {
      "inputs": [
        {
          "internalType": "uint256",
          "name": "tokenId",
          "type": "uint256"
        }
      ],
      "name": "ownerOf",
      "outputs": [
        {
          "internalType": "address",
          "name": "",
          "type": "address"
        }
      ],
      "stateMutability": "view",
      "type": "function"
    },
    {
      "inputs": [],
      "name": "renounceOwnership",
      "outputs": [],
      "stateMutability": "nonpayable",
      "type": "function"
    },
    {
      "inputs": [
        {
          "internalType": "address",
          "name": "from",
          "type": "address"
        },
        {
          "internalType": "address",
          "name": "to",
          "type": "address"
        },
        {
          "internalType": "uint256",
          "name": "tokenId",
          "type": "uint256"
        }
      ],
      "name": "safeTransferFrom",
      "outputs": [],
      "stateMutability": "nonpayable",
      "type": "function"
    },
    {
      "inputs": [
        {
          "internalType": "address",
          "name": "from",
          "type": "address"
        },
        {
          "internalType": "address",
          "name": "to",
          "type": "address"
        },
        {
          "internalType": "uint256",
          "name": "tokenId",
          "type": "uint256"
        },
        {
          "internalType": "bytes",
          "name": "data",
          "type": "bytes"
        }
      ],
      "name": "safeTransferFrom",
      "outputs": [],
      "stateMutability": "nonpayable",
      "type": "function"
    },
    {
      "inputs": [
        {
          "internalType": "address",
          "name": "operator",
          "type": "address"
        },
        {
          "internalType": "bool",
          "name": "approved",
          "type": "bool"
        }
      ],
      "name": "setApprovalForAll",
      "outputs": [],
      "stateMutability": "nonpayable",
      "type": "function"
    },
    {
      "inputs": [
        {
          "internalType": "bytes4",
          "name": "interfaceId",
          "type": "bytes4"
        }
      ],
      "name": "supportsInterface",
      "outputs": [
        {
          "internalType": "bool",
          "name": "",
          "type": "bool"
        }
      ],
      "stateMutability": "view",
      "type": "function"
    },
    {
      "inputs": [],
      "name": "symbol",
      "outputs": [
        {
          "internalType": "string",
          "name": "",
          "type": "string"
        }
      ],
      "stateMutability": "view",
      "type": "function"
    },
    {
      "inputs": [
        {
          "internalType": "uint256",
          "name": "tokenId",
          "type": "uint256"
        }
      ],
      "name": "tokenURI",
      "outputs": [
        {
          "internalType": "string",
          "name": "",
          "type": "string"
        }
      ],
      "stateMutability": "view",
      "type": "function"
    },
    {
      "inputs": [],
      "name": "totalSupply",
      "outputs": [
        {
          "internalType": "uint256",
          "name": "",
          "type": "uint256"
        }
      ],
      "stateMutability": "view",
      "type": "function"
    },
    {
      "inputs": [
        {
          "internalType": "address",
          "name": "from",
          "type": "address"
        },
        {
          "internalType": "address",
          "name": "to",
          "type": "address"
        },
        {
          "internalType": "uint256",
          "name": "tokenId",
          "type": "uint256"
        }
      ],
      "name": "transferFrom",
      "outputs": [],
      "stateMutability": "nonpayable",
      "type": "function"
    },
    {
      "inputs": [
        {
          "internalType": "address",
          "name": "newOwner",
          "type": "address"
        }
      ],
      "name": "transferOwnership",
      "outputs": [],
      "stateMutability": "nonpayable",
      "type": "function"
    }
  ],
  "bytecode": "0x608060405234801561000f575f5ffd5b50336040518060400160405280601681526020017f536b696c6c436861696e204365727469666963617465000000000000000000008152506040518060400160405280600981526020017f534b494c4c434552540000000000000000000000000000000000000000000000815250815f908161008b9190610423565b50806001908161009b9190610423565b5050505f73ffffffffffffffffffffffffffffffffffffffff168173ffffffffffffffffffffffffffffffffffffffff160361010e575f6040517f1e4fbdf70000000000000000000000000000000000000000000000000000000081526004016101059190610531565b60405180910390fd5b61011d8161012360201b60201c565b5061054a565b5f60065f9054906101000a900473ffffffffffffffffffffffffffffffffffffffff1690508160065f6101000a81548173ffffffffffffffffffffffffffffffffffffffff021916908373ffffffffffffffffffffffffffffffffffffffff1602179055508173ffffffffffffffffffffffffffffffffffffffff168173ffffffffffffffffffffffffffffffffffffffff167f8be0079c531659141344cd1fd0a4f28419497f9722a3daafe3b4186f6b6457e060405160405180910390a35050565b5f81519050919050565b7f4e487b71000000000000000000000000000000000000000000000000000000005f52604160045260245ffd5b7f4e487b71000000000000000000000000000000000000000000000000000000005f52602260045260245ffd5b5f600282049050600182168061026157607f821691505b6020821081036102745761027361021d565b5b50919050565b5f819050815f5260205f209050919050565b5f6020601f8301049050919050565b5f82821b905092915050565b5f600883026102d67fffffffffffffffffffffffffffffffffffffffffffffffffffffffffffffffff8261029b565b6102e0868361029b565b95508019841693508086168417925050509392505050565b5f819050919050565b5f819050919050565b5f61032461031f61031a846102f8565b610301565b6102f8565b9050919050565b5f819050919050565b61033d8361030a565b6103516103498261032b565b8484546102a7565b825550505050565b5f5f905090565b610368610359565b610373818484610334565b505050565b5b818110156103965761038b5f82610360565b600181019050610379565b5050565b601f8211156103db576103ac8161027a565b6103b58461028c565b810160208510156103c4578190505b6103d86103d08561028c565b830182610378565b50505b505050565b5f82821c905092915050565b5f6103fb5f19846008026103e0565b1980831691505092915050565b5f61041383836103ec565b9150826002028217905092915050565b61042c826101e6565b67ffffffffffffffff811115610445576104446101f0565b5b61044f825461024a565b61045a82828561039a565b5f60209050601f83116001811461048b575f8415610479578287015190505b6104838582610408565b8655506104ea565b601f1984166104998661027a565b5f5b828110156104c05784890151825560018201915060208501945060208101905061049b565b868310156104dd57848901516104d9601f8916826103ec565b8355505b6001600288020188555050505b505050505050565b5f73ffffffffffffffffffffffffffffffffffffffff82169050919050565b5f61051b826104f2565b9050919050565b61052b81610511565b82525050565b5f6020820190506105445f830184610522565b92915050565b613d70806105575f395ff3fe608060405234801561000f575f5ffd5b5060043610610135575f3560e01c806370a08231116100b6578063b88d4fde1161007a578063b88d4fde1461034f578063bfe2fb451461036b578063c87b56dd1461039b578063e0090442146103cb578063e985e9c5146103fb578063f2fde38b1461042b57610135565b806370a08231146102bd578063715018a6146102ed5780638da5cb5b146102f757806395d89b4114610315578063a22cb4651461033357610135565b806323b872dd116100fd57806323b872dd146101f157806331f703361461020d57806342842e0e1461023d5780636352211e14610259578063663b3e221461028957610135565b806301ffc9a71461013957806306fdde0314610169578063081812fc14610187578063095ea7b3146101b757806318160ddd146101d3575b5f5ffd5b610153600480360381019061014e9190612520565b610447565b6040516101609190612565565b60405180910390f35b610171610528565b60405161017e91906125ee565b60405180910390f35b6101a1600480360381019061019c9190612641565b6105b7565b6040516101ae91906126ab565b60405180910390f35b6101d160048036038101906101cc91906126ee565b6105d2565b005b6101db6105e8565b6040516101e8919061273b565b60405180910390f35b61020b60048036038101906102069190612754565b6105f1565b005b610227600480360381019061022291906127a4565b6106f0565b6040516102349190612886565b60405180910390f35b61025760048036038101906102529190612754565b610783565b005b610273600480360381019061026e9190612641565b6107a2565b60405161028091906126ab565b60405180910390f35b6102a3600480360381019061029e9190612641565b6107b3565b6040516102b49594939291906128c1565b60405180910390f35b6102d760048036038101906102d291906127a4565b61091c565b6040516102e4919061273b565b60405180910390f35b6102f56109d2565b005b6102ff6109e5565b60405161030c91906126ab565b60405180910390f35b61031d610a0d565b60405161032a91906125ee565b60405180910390f35b61034d6004803603810190610348919061294a565b610a9d565b005b61036960048036038101906103649190612ab4565b610ab3565b005b610385600480360381019061038091906126ee565b610ad8565b604051610392919061273b565b60405180910390f35b6103b560048036038101906103b09190612641565b610b03565b6040516103c291906125ee565b60405180910390f35b6103e560048036038101906103e09190612bfc565b610df7565b6040516103f2919061273b565b60405180910390f35b61041560048036038101906104109190612c98565b611059565b6040516104229190612565565b60405180910390f35b610445600480360381019061044091906127a4565b6110e7565b005b5f7f80ac58cd000000000000000000000000000000000000000000000000000000007bffffffffffffffffffffffffffffffffffffffffffffffffffffffff1916827bffffffffffffffffffffffffffffffffffffffffffffffffffffffff1916148061051157507f5b5e139f000000000000000000000000000000000000000000000000000000007bffffffffffffffffffffffffffffffffffffffffffffffffffffffff1916827bffffffffffffffffffffffffffffffffffffffffffffffffffffffff1916145b8061052157506105208261116b565b5b9050919050565b60605f805461053690612d03565b80601f016020809104026020016040519081016040528092919081815260200182805461056290612d03565b80156105ad5780601f10610584576101008083540402835291602001916105ad565b820191905f5260205f20905b81548152906001019060200180831161059057829003601f168201915b5050505050905090565b5f6105c1826111d4565b506105cb8261125a565b9050919050565b6105e482826105df611293565b61129a565b5050565b5f600754905090565b5f73ffffffffffffffffffffffffffffffffffffffff168273ffffffffffffffffffffffffffffffffffffffff1603610661575f6040517f64a0ae9200000000000000000000000000000000000000000000000000000000815260040161065891906126ab565b60405180910390fd5b5f610674838361066f611293565b6112ac565b90508373ffffffffffffffffffffffffffffffffffffffff168173ffffffffffffffffffffffffffffffffffffffff16146106ea578382826040517f64283d7b0000000000000000000000000000000000000000000000000000000081526004016106e193929190612d33565b60405180910390fd5b50505050565b606060095f8373ffffffffffffffffffffffffffffffffffffffff1673ffffffffffffffffffffffffffffffffffffffff1681526020019081526020015f2080548060200260200160405190810160405280929190818152602001828054801561077757602002820191905f5260205f20905b815481526020019060010190808311610763575b50505050509050919050565b61079d83838360405180602001604052805f815250610ab3565b505050565b5f6107ac826111d4565b9050919050565b6008602052805f5260405f205f91509050805f0180546107d290612d03565b80601f01602080910402602001604051908101604052809291908181526020018280546107fe90612d03565b80156108495780601f1061082057610100808354040283529160200191610849565b820191905f5260205f20905b81548152906001019060200180831161082c57829003601f168201915b50505050509080600101805461085e90612d03565b80601f016020809104026020016040519081016040528092919081815260200182805461088a90612d03565b80156108d55780601f106108ac576101008083540402835291602001916108d5565b820191905f5260205f20905b8154815290600101906020018083116108b857829003601f168201915b505050505090806002015f9054906101000a900460ff1690806003015490806004015f9054906101000a900473ffffffffffffffffffffffffffffffffffffffff16905085565b5f5f73ffffffffffffffffffffffffffffffffffffffff168273ffffffffffffffffffffffffffffffffffffffff160361098d575f6040517f89c62b6400000000000000000000000000000000000000000000000000000000815260040161098491906126ab565b60405180910390fd5b60035f8373ffffffffffffffffffffffffffffffffffffffff1673ffffffffffffffffffffffffffffffffffffffff1681526020019081526020015f20549050919050565b6109da61133c565b6109e35f6113c3565b565b5f60065f9054906101000a900473ffffffffffffffffffffffffffffffffffffffff16905090565b606060018054610a1c90612d03565b80601f0160208091040260200160405190810160405280929190818152602001828054610a4890612d03565b8015610a935780601f10610a6a57610100808354040283529160200191610a93565b820191905f5260205f20905b815481529060010190602001808311610a7657829003601f168201915b5050505050905090565b610aaf610aa8611293565b8383611486565b5050565b610abe8484846105f1565b610ad2610ac9611293565b8585858561165f565b50505050565b6009602052815f5260405f208181548110610af1575f80fd5b905f5260205f20015f91509150505481565b60605f73ffffffffffffffffffffffffffffffffffffffff16610b258361180b565b73ffffffffffffffffffffffffffffffffffffffff1603610b7b576040517f08c379a0000000000000000000000000000000000000000000000000000000008152600401610b7290612db2565b60405180910390fd5b5f60085f8481526020019081526020015f206040518060a00160405290815f82018054610ba790612d03565b80601f0160208091040260200160405190810160405280929190818152602001828054610bd390612d03565b8015610c1e5780601f10610bf557610100808354040283529160200191610c1e565b820191905f5260205f20905b815481529060010190602001808311610c0157829003601f168201915b50505050508152602001600182018054610c3790612d03565b80601f0160208091040260200160405190810160405280929190818152602001828054610c6390612d03565b8015610cae5780601f10610c8557610100808354040283529160200191610cae565b820191905f5260205f20905b815481529060010190602001808311610c9157829003601f168201915b50505050508152602001600282015f9054906101000a900460ff1660ff1660ff16815260200160038201548152602001600482015f9054906101000a900473ffffffffffffffffffffffffffffffffffffffff1673ffffffffffffffffffffffffffffffffffffffff1673ffffffffffffffffffffffffffffffffffffffff168152505090505f610dcc825f0151610d61846080015173ffffffffffffffffffffffffffffffffffffffff166014611844565b610d71856040015160ff16611a82565b855f01518660200151875f01518860200151610d938a6040015160ff16611a82565b610da08b60600151611a82565b604051602001610db89998979695949392919061346c565b604051602081830303815290604052611b4c565b905080604051602001610ddf9190613610565b60405160208183030381529060405292505050919050565b5f610e0061133c565b60508260ff161015610e47576040517f08c379a0000000000000000000000000000000000000000000000000000000008152600401610e3e906136a1565b60405180910390fd5b5f845111610e8a576040517f08c379a0000000000000000000000000000000000000000000000000000000008152600401610e819061372f565b60405180910390fd5b5f60075f815480929190610e9d9061377a565b919050559050610ead8682611b5f565b6040518060a001604052808681526020018581526020018460ff1681526020014281526020018773ffffffffffffffffffffffffffffffffffffffff1681525060085f8381526020019081526020015f205f820151815f019081610f119190613961565b506020820151816001019081610f279190613961565b506040820151816002015f6101000a81548160ff021916908360ff160217905550606082015181600301556080820151816004015f6101000a81548173ffffffffffffffffffffffffffffffffffffffff021916908373ffffffffffffffffffffffffffffffffffffffff16021790555090505060095f8773ffffffffffffffffffffffffffffffffffffffff1673ffffffffffffffffffffffffffffffffffffffff1681526020019081526020015f2081908060018154018082558091505060019003905f5260205f20015f90919091909150558573ffffffffffffffffffffffffffffffffffffffff16817f905977b5eec282f1360accbc560fbe82f08319a9e7dfc5be7fec40364caf55798786604051611045929190613a30565b60405180910390a380915050949350505050565b5f60055f8473ffffffffffffffffffffffffffffffffffffffff1673ffffffffffffffffffffffffffffffffffffffff1681526020019081526020015f205f8373ffffffffffffffffffffffffffffffffffffffff1673ffffffffffffffffffffffffffffffffffffffff1681526020019081526020015f205f9054906101000a900460ff16905092915050565b6110ef61133c565b5f73ffffffffffffffffffffffffffffffffffffffff168173ffffffffffffffffffffffffffffffffffffffff160361115f575f6040517f1e4fbdf700000000000000000000000000000000000000000000000000000000815260040161115691906126ab565b60405180910390fd5b611168816113c3565b50565b5f7f01ffc9a7000000000000000000000000000000000000000000000000000000007bffffffffffffffffffffffffffffffffffffffffffffffffffffffff1916827bffffffffffffffffffffffffffffffffffffffffffffffffffffffff1916149050919050565b5f5f6111df8361180b565b90505f73ffffffffffffffffffffffffffffffffffffffff168173ffffffffffffffffffffffffffffffffffffffff160361125157826040517f7e273289000000000000000000000000000000000000000000000000000000008152600401611248919061273b565b60405180910390fd5b80915050919050565b5f60045f8381526020019081526020015f205f9054906101000a900473ffffffffffffffffffffffffffffffffffffffff169050919050565b5f33905090565b6112a78383836001611b7c565b505050565b5f5f6112b78461180b565b90505f73ffffffffffffffffffffffffffffffffffffffff168173ffffffffffffffffffffffffffffffffffffffff1614611327576040517f08c379a000000000000000000000000000000000000000000000000000000000815260040161131e90613ace565b60405180910390fd5b611332858585611d3b565b9150509392505050565b611344611293565b73ffffffffffffffffffffffffffffffffffffffff166113626109e5565b73ffffffffffffffffffffffffffffffffffffffff16146113c157611385611293565b6040517f118cdaa70000000000000000000000000000000000000000000000000000000081526004016113b891906126ab565b60405180910390fd5b565b5f60065f9054906101000a900473ffffffffffffffffffffffffffffffffffffffff1690508160065f6101000a81548173ffffffffffffffffffffffffffffffffffffffff021916908373ffffffffffffffffffffffffffffffffffffffff1602179055508173ffffffffffffffffffffffffffffffffffffffff168173ffffffffffffffffffffffffffffffffffffffff167f8be0079c531659141344cd1fd0a4f28419497f9722a3daafe3b4186f6b6457e060405160405180910390a35050565b5f73ffffffffffffffffffffffffffffffffffffffff168373ffffffffffffffffffffffffffffffffffffffff16036114f6575f6040517fa9fbf51f0000000000000000000000000000000000000000000000000000000081526004016114ed91906126ab565b60405180910390fd5b5f73ffffffffffffffffffffffffffffffffffffffff168273ffffffffffffffffffffffffffffffffffffffff160361156657816040517f5b08ba1800000000000000000000000000000000000000000000000000000000815260040161155d91906126ab565b60405180910390fd5b8060055f8573ffffffffffffffffffffffffffffffffffffffff1673ffffffffffffffffffffffffffffffffffffffff1681526020019081526020015f205f8473ffffffffffffffffffffffffffffffffffffffff1673ffffffffffffffffffffffffffffffffffffffff1681526020019081526020015f205f6101000a81548160ff0219169083151502179055508173ffffffffffffffffffffffffffffffffffffffff168373ffffffffffffffffffffffffffffffffffffffff167f17307eab39ab6107e8899845ad3d59bd9653f200f220920489ca2b5937696c31836040516116529190612565565b60405180910390a3505050565b5f8373ffffffffffffffffffffffffffffffffffffffff163b1115611804578273ffffffffffffffffffffffffffffffffffffffff1663150b7a02868685856040518563ffffffff1660e01b81526004016116bd9493929190613b3e565b6020604051808303815f875af19250505080156116f857506040513d601f19601f820116820180604052508101906116f59190613b9c565b60015b611779573d805f8114611726576040519150601f19603f3d011682016040523d82523d5f602084013e61172b565b606091505b505f81510361177157836040517f64a0ae9200000000000000000000000000000000000000000000000000000000815260040161176891906126ab565b60405180910390fd5b805160208201fd5b63150b7a0260e01b7bffffffffffffffffffffffffffffffffffffffffffffffffffffffff1916817bffffffffffffffffffffffffffffffffffffffffffffffffffffffff19161461180257836040517f64a0ae920000000000000000000000000000000000000000000000000000000081526004016117f991906126ab565b60405180910390fd5b505b5050505050565b5f60025f8381526020019081526020015f205f9054906101000a900473ffffffffffffffffffffffffffffffffffffffff169050919050565b60605f8390505f600284600261185a9190613bc7565b6118649190613c08565b67ffffffffffffffff81111561187d5761187c612990565b5b6040519080825280601f01601f1916602001820160405280156118af5781602001600182028036833780820191505090505b5090507f3000000000000000000000000000000000000000000000000000000000000000815f815181106118e6576118e5613c3b565b5b60200101907effffffffffffffffffffffffffffffffffffffffffffffffffffffffffffff191690815f1a9053507f78000000000000000000000000000000000000000000000000000000000000008160018151811061194957611948613c3b565b5b60200101907effffffffffffffffffffffffffffffffffffffffffffffffffffffffffffff191690815f1a9053505f60018560026119879190613bc7565b6119919190613c08565b90505b6001811115611a30577f3031323334353637383961626364656600000000000000000000000000000000600f8416601081106119d3576119d2613c3b565b5b1a60f81b8282815181106119ea576119e9613c3b565b5b60200101907effffffffffffffffffffffffffffffffffffffffffffffffffffffffffffff191690815f1a905350600483901c925080611a2990613c68565b9050611994565b505f8214611a775784846040517fe22e27eb000000000000000000000000000000000000000000000000000000008152600401611a6e929190613c8f565b60405180910390fd5b809250505092915050565b60605f6001611a9084611f46565b0190505f8167ffffffffffffffff811115611aae57611aad612990565b5b6040519080825280601f01601f191660200182016040528015611ae05781602001600182028036833780820191505090505b5090505f82602083010190505b600115611b41578080600190039150507f3031323334353637383961626364656600000000000000000000000000000000600a86061a8153600a8581611b3657611b35613cb6565b5b0494505f8503611aed575b819350505050919050565b6060611b58825f612097565b9050919050565b611b78828260405180602001604052805f815250612221565b5050565b8080611bb457505f73ffffffffffffffffffffffffffffffffffffffff168273ffffffffffffffffffffffffffffffffffffffff1614155b15611ce6575f611bc3846111d4565b90505f73ffffffffffffffffffffffffffffffffffffffff168373ffffffffffffffffffffffffffffffffffffffff1614158015611c2d57508273ffffffffffffffffffffffffffffffffffffffff168173ffffffffffffffffffffffffffffffffffffffff1614155b8015611c405750611c3e8184611059565b155b15611c8257826040517fa9fbf51f000000000000000000000000000000000000000000000000000000008152600401611c7991906126ab565b60405180910390fd5b8115611ce457838573ffffffffffffffffffffffffffffffffffffffff168273ffffffffffffffffffffffffffffffffffffffff167f8c5be1e5ebec7d5bd14f71427d1e84f3dd0314c0f7b2291e5b200ac8c7c3b92560405160405180910390a45b505b8360045f8581526020019081526020015f205f6101000a81548173ffffffffffffffffffffffffffffffffffffffff021916908373ffffffffffffffffffffffffffffffffffffffff16021790555050505050565b5f5f611d468461180b565b90505f73ffffffffffffffffffffffffffffffffffffffff168373ffffffffffffffffffffffffffffffffffffffff1614611d8757611d86818486612244565b5b5f73ffffffffffffffffffffffffffffffffffffffff168173ffffffffffffffffffffffffffffffffffffffff1614611e1257611dc65f855f5f611b7c565b600160035f8373ffffffffffffffffffffffffffffffffffffffff1673ffffffffffffffffffffffffffffffffffffffff1681526020019081526020015f205f82825403925050819055505b5f73ffffffffffffffffffffffffffffffffffffffff168573ffffffffffffffffffffffffffffffffffffffff1614611e9157600160035f8773ffffffffffffffffffffffffffffffffffffffff1673ffffffffffffffffffffffffffffffffffffffff1681526020019081526020015f205f82825401925050819055505b8460025f8681526020019081526020015f205f6101000a81548173ffffffffffffffffffffffffffffffffffffffff021916908373ffffffffffffffffffffffffffffffffffffffff160217905550838573ffffffffffffffffffffffffffffffffffffffff168273ffffffffffffffffffffffffffffffffffffffff167fddf252ad1be2c89b69c2b068fc378daa952ba7f163c4a11628f55a4df523b3ef60405160405180910390a4809150509392505050565b5f5f5f90507a184f03e93ff9f4daa797ed6e38ed64bf6a1f0100000000000000008310611fa2577a184f03e93ff9f4daa797ed6e38ed64bf6a1f0100000000000000008381611f9857611f97613cb6565b5b0492506040810190505b6d04ee2d6d415b85acef81000000008310611fdf576d04ee2d6d415b85acef81000000008381611fd557611fd4613cb6565b5b0492506020810190505b662386f26fc10000831061200e57662386f26fc10000838161200457612003613cb6565b5b0492506010810190505b6305f5e1008310612037576305f5e100838161202d5761202c613cb6565b5b0492506008810190505b612710831061205c57612710838161205257612051613cb6565b5b0492506004810190505b6064831061207f576064838161207557612074613cb6565b5b0492506002810190505b600a831061208e576001810190505b80915050919050565b60605f8351036120b75760405180602001604052805f815250905061221b565b5f826120e8576003600285516120cd9190613c08565b6120d79190613ce3565b60046120e39190613bc7565b61210f565b60036002855160046120fa9190613bc7565b6121049190613c08565b61210e9190613ce3565b5b905060405191507f4142434445464748494a4b4c4d4e4f505152535455565758595a616263646566601f5261067083027f6768696a6b6c6d6e6f707172737475767778797a303132333435363738392b2f18603f526020820181810185865187016020810180515f82525b828410156121cd576003840193508351603f8160121c16518753600187019650603f81600c1c16518753600187019650603f8160061c16518753600187019650603f81165187536001870196505061217a565b8082528861220c5760038a5106600181146121ef57600281146122025761220a565b603d6001880353603d600288035361220a565b603d60018803535b505b86885284604052505050505050505b92915050565b61222b8383612307565b61223f612236611293565b5f85858561165f565b505050565b61224f8383836123fa565b612302575f73ffffffffffffffffffffffffffffffffffffffff168373ffffffffffffffffffffffffffffffffffffffff16036122c357806040517f7e2732890000000000000000000000000000000000000000000000000000000081526004016122ba919061273b565b60405180910390fd5b81816040517f177e802f0000000000000000000000000000000000000000000000000000000081526004016122f9929190613d13565b60405180910390fd5b505050565b5f73ffffffffffffffffffffffffffffffffffffffff168273ffffffffffffffffffffffffffffffffffffffff1603612377575f6040517f64a0ae9200000000000000000000000000000000000000000000000000000000815260040161236e91906126ab565b60405180910390fd5b5f61238383835f6112ac565b90505f73ffffffffffffffffffffffffffffffffffffffff168173ffffffffffffffffffffffffffffffffffffffff16146123f5575f6040517f73c6ac6e0000000000000000000000000000000000000000000000000000000081526004016123ec91906126ab565b60405180910390fd5b505050565b5f5f73ffffffffffffffffffffffffffffffffffffffff168373ffffffffffffffffffffffffffffffffffffffff16141580156124b157508273ffffffffffffffffffffffffffffffffffffffff168473ffffffffffffffffffffffffffffffffffffffff16148061247257506124718484611059565b5b806124b057508273ffffffffffffffffffffffffffffffffffffffff166124988361125a565b73ffffffffffffffffffffffffffffffffffffffff16145b5b90509392505050565b5f604051905090565b5f5ffd5b5f5ffd5b5f7fffffffff0000000000000000000000000000000000000000000000000000000082169050919050565b6124ff816124cb565b8114612509575f5ffd5b50565b5f8135905061251a816124f6565b92915050565b5f60208284031215612535576125346124c3565b5b5f6125428482850161250c565b91505092915050565b5f8115159050919050565b61255f8161254b565b82525050565b5f6020820190506125785f830184612556565b92915050565b5f81519050919050565b5f82825260208201905092915050565b8281835e5f83830152505050565b5f601f19601f8301169050919050565b5f6125c08261257e565b6125ca8185612588565b93506125da818560208601612598565b6125e3816125a6565b840191505092915050565b5f6020820190508181035f83015261260681846125b6565b905092915050565b5f819050919050565b6126208161260e565b811461262a575f5ffd5b50565b5f8135905061263b81612617565b92915050565b5f60208284031215612656576126556124c3565b5b5f6126638482850161262d565b91505092915050565b5f73ffffffffffffffffffffffffffffffffffffffff82169050919050565b5f6126958261266c565b9050919050565b6126a58161268b565b82525050565b5f6020820190506126be5f83018461269c565b92915050565b6126cd8161268b565b81146126d7575f5ffd5b50565b5f813590506126e8816126c4565b92915050565b5f5f60408385031215612704576127036124c3565b5b5f612711858286016126da565b92505060206127228582860161262d565b9150509250929050565b6127358161260e565b82525050565b5f60208201905061274e5f83018461272c565b92915050565b5f5f5f6060848603121561276b5761276a6124c3565b5b5f612778868287016126da565b9350506020612789868287016126da565b925050604061279a8682870161262d565b9150509250925092565b5f602082840312156127b9576127b86124c3565b5b5f6127c6848285016126da565b91505092915050565b5f81519050919050565b5f82825260208201905092915050565b5f819050602082019050919050565b6128018161260e565b82525050565b5f61281283836127f8565b60208301905092915050565b5f602082019050919050565b5f612834826127cf565b61283e81856127d9565b9350612849836127e9565b805f5b838110156128795781516128608882612807565b975061286b8361281e565b92505060018101905061284c565b5085935050505092915050565b5f6020820190508181035f83015261289e818461282a565b905092915050565b5f60ff82169050919050565b6128bb816128a6565b82525050565b5f60a0820190508181035f8301526128d981886125b6565b905081810360208301526128ed81876125b6565b90506128fc60408301866128b2565b612909606083018561272c565b612916608083018461269c565b9695505050505050565b6129298161254b565b8114612933575f5ffd5b50565b5f8135905061294481612920565b92915050565b5f5f604083850312156129605761295f6124c3565b5b5f61296d858286016126da565b925050602061297e85828601612936565b9150509250929050565b5f5ffd5b5f5ffd5b7f4e487b71000000000000000000000000000000000000000000000000000000005f52604160045260245ffd5b6129c6826125a6565b810181811067ffffffffffffffff821117156129e5576129e4612990565b5b80604052505050565b5f6129f76124ba565b9050612a0382826129bd565b919050565b5f67ffffffffffffffff821115612a2257612a21612990565b5b612a2b826125a6565b9050602081019050919050565b828183375f83830152505050565b5f612a58612a5384612a08565b6129ee565b905082815260208101848484011115612a7457612a7361298c565b5b612a7f848285612a38565b509392505050565b5f82601f830112612a9b57612a9a612988565b5b8135612aab848260208601612a46565b91505092915050565b5f5f5f5f60808587031215612acc57612acb6124c3565b5b5f612ad9878288016126da565b9450506020612aea878288016126da565b9350506040612afb8782880161262d565b925050606085013567ffffffffffffffff811115612b1c57612b1b6124c7565b5b612b2887828801612a87565b91505092959194509250565b5f67ffffffffffffffff821115612b4e57612b4d612990565b5b612b57826125a6565b9050602081019050919050565b5f612b76612b7184612b34565b6129ee565b905082815260208101848484011115612b9257612b9161298c565b5b612b9d848285612a38565b509392505050565b5f82601f830112612bb957612bb8612988565b5b8135612bc9848260208601612b64565b91505092915050565b612bdb816128a6565b8114612be5575f5ffd5b50565b5f81359050612bf681612bd2565b92915050565b5f5f5f5f60808587031215612c1457612c136124c3565b5b5f612c21878288016126da565b945050602085013567ffffffffffffffff811115612c4257612c416124c7565b5b612c4e87828801612ba5565b935050604085013567ffffffffffffffff811115612c6f57612c6e6124c7565b5b612c7b87828801612ba5565b9250506060612c8c87828801612be8565b91505092959194509250565b5f5f60408385031215612cae57612cad6124c3565b5b5f612cbb858286016126da565b9250506020612ccc858286016126da565b9150509250929050565b7f4e487b71000000000000000000000000000000000000000000000000000000005f52602260045260245ffd5b5f6002820490506001821680612d1a57607f821691505b602082108103612d2d57612d2c612cd6565b5b50919050565b5f606082019050612d465f83018661269c565b612d53602083018561272c565b612d60604083018461269c565b949350505050565b7f536b696c6c436861696e3a20746f6b656e20646f6573206e6f742065786973745f82015250565b5f612d9c602083612588565b9150612da782612d68565b602082019050919050565b5f6020820190508181035f830152612dc981612d90565b9050919050565b5f81905092915050565b7f7b226e616d65223a22536b696c6c436861696e3a2000000000000000000000005f82015250565b5f612e0e601583612dd0565b9150612e1982612dda565b601582019050919050565b5f612e2e8261257e565b612e388185612dd0565b9350612e48818560208601612598565b80840191505092915050565b7f222c0000000000000000000000000000000000000000000000000000000000005f82015250565b5f612e88600283612dd0565b9150612e9382612e54565b600282019050919050565b7f226465736372697074696f6e223a224561726e656420627920000000000000005f82015250565b5f612ed2601983612dd0565b9150612edd82612e9e565b601982019050919050565b7f207769746820612073636f7265206f66200000000000000000000000000000005f82015250565b5f612f1c601183612dd0565b9150612f2782612ee8565b601182019050919050565b7f2f313030206f6e200000000000000000000000000000000000000000000000005f82015250565b5f612f66600883612dd0565b9150612f7182612f32565b600882019050919050565b7f20280000000000000000000000000000000000000000000000000000000000005f82015250565b5f612fb0600283612dd0565b9150612fbb82612f7c565b600282019050919050565b7f292e20497373756564206f6e2042617365205365706f6c69612076696120536b5f8201527f696c6c436861696e2e0000000000000000000000000000000000000000000000602082015250565b5f613020602983612dd0565b915061302b82612fc6565b602982019050919050565b7f222c2261747472696275746573223a5b000000000000000000000000000000005f82015250565b5f61306a601083612dd0565b915061307582613036565b601082019050919050565b7f7b2274726169745f74797065223a22546f706963222c2276616c7565223a22005f82015250565b5f6130b4601f83612dd0565b91506130bf82613080565b601f82019050919050565b7f227d2c00000000000000000000000000000000000000000000000000000000005f82015250565b5f6130fe600383612dd0565b9150613109826130ca565b600382019050919050565b7f7b2274726169745f74797065223a22446966666963756c7479222c2276616c755f8201527f65223a2200000000000000000000000000000000000000000000000000000000602082015250565b5f61316e602483612dd0565b915061317982613114565b602482019050919050565b7f7b2274726169745f74797065223a2253636f7265222c2276616c7565223a00005f82015250565b5f6131b8601e83612dd0565b91506131c382613184565b601e82019050919050565b7f7d2c0000000000000000000000000000000000000000000000000000000000005f82015250565b5f613202600283612dd0565b915061320d826131ce565b600282019050919050565b7f7b2274726169745f74797065223a2250617373696e67205468726573686f6c645f8201527f222c2276616c7565223a38307d2c000000000000000000000000000000000000602082015250565b5f613272602e83612dd0565b915061327d82613218565b602e82019050919050565b7f7b2274726169745f74797065223a22506c6174666f726d222c2276616c7565225f8201527f3a22536b696c6c436861696e227d2c0000000000000000000000000000000000602082015250565b5f6132e2602f83612dd0565b91506132ed82613288565b602f82019050919050565b7f7b2274726169745f74797065223a224e6574776f726b222c2276616c7565223a5f8201527f2242617365205365706f6c6961227d2c00000000000000000000000000000000602082015250565b5f613352603083612dd0565b915061335d826132f8565b603082019050919050565b7f7b22646973706c61795f74797065223a2264617465222c2274726169745f74795f8201527f7065223a22497373756564222c2276616c7565223a0000000000000000000000602082015250565b5f6133c2603583612dd0565b91506133cd82613368565b603582019050919050565b7f7d000000000000000000000000000000000000000000000000000000000000005f82015250565b5f61340c600183612dd0565b9150613417826133d8565b600182019050919050565b7f5d7d0000000000000000000000000000000000000000000000000000000000005f82015250565b5f613456600283612dd0565b915061346182613422565b600282019050919050565b5f61347682612e02565b9150613482828c612e24565b915061348d82612e7c565b915061349882612ec6565b91506134a4828b612e24565b91506134af82612f10565b91506134bb828a612e24565b91506134c682612f5a565b91506134d28289612e24565b91506134dd82612fa4565b91506134e98288612e24565b91506134f482613014565b91506134ff8261305e565b915061350a826130a8565b91506135168287612e24565b9150613521826130f2565b915061352c82613162565b91506135388286612e24565b9150613543826130f2565b915061354e826131ac565b915061355a8285612e24565b9150613565826131f6565b915061357082613266565b915061357b826132d6565b915061358682613346565b9150613591826133b6565b915061359d8284612e24565b91506135a882613400565b91506135b38261344a565b91508190509a9950505050505050505050565b7f646174613a6170706c69636174696f6e2f6a736f6e3b6261736536342c0000005f82015250565b5f6135fa601d83612dd0565b9150613605826135c6565b601d82019050919050565b5f61361a826135ee565b91506136268284612e24565b915081905092915050565b7f536b696c6c436861696e3a2073636f72652062656c6f772070617373696e67205f8201527f7468726573686f6c64206f662038300000000000000000000000000000000000602082015250565b5f61368b602f83612588565b915061369682613631565b604082019050919050565b5f6020820190508181035f8301526136b88161367f565b9050919050565b7f536b696c6c436861696e3a20746f7069632063616e6e6f7420626520656d70745f8201527f7900000000000000000000000000000000000000000000000000000000000000602082015250565b5f613719602183612588565b9150613724826136bf565b604082019050919050565b5f6020820190508181035f8301526137468161370d565b9050919050565b7f4e487b71000000000000000000000000000000000000000000000000000000005f52601160045260245ffd5b5f6137848261260e565b91507fffffffffffffffffffffffffffffffffffffffffffffffffffffffffffffffff82036137b6576137b561374d565b5b600182019050919050565b5f819050815f5260205f209050919050565b5f6020601f8301049050919050565b5f82821b905092915050565b5f6008830261381d7fffffffffffffffffffffffffffffffffffffffffffffffffffffffffffffffff826137e2565b61382786836137e2565b95508019841693508086168417925050509392505050565b5f819050919050565b5f61386261385d6138588461260e565b61383f565b61260e565b9050919050565b5f819050919050565b61387b83613848565b61388f61388782613869565b8484546137ee565b825550505050565b5f5f905090565b6138a6613897565b6138b1818484613872565b505050565b5b818110156138d4576138c95f8261389e565b6001810190506138b7565b5050565b601f821115613919576138ea816137c1565b6138f3846137d3565b81016020851015613902578190505b61391661390e856137d3565b8301826138b6565b50505b505050565b5f82821c905092915050565b5f6139395f198460080261391e565b1980831691505092915050565b5f613951838361392a565b9150826002028217905092915050565b61396a8261257e565b67ffffffffffffffff81111561398357613982612990565b5b61398d8254612d03565b6139988282856138d8565b5f60209050601f8311600181146139c9575f84156139b7578287015190505b6139c18582613946565b865550613a28565b601f1984166139d7866137c1565b5f5b828110156139fe578489015182556001820191506020850194506020810190506139d9565b86831015613a1b5784890151613a17601f89168261392a565b8355505b6001600288020188555050505b505050505050565b5f6040820190508181035f830152613a4881856125b6565b9050613a5760208301846128b2565b9392505050565b7f536b696c6c436861696e3a206365727469666963617465732061726520736f755f8201527f6c626f756e6420616e64206e6f6e2d7472616e7366657261626c650000000000602082015250565b5f613ab8603b83612588565b9150613ac382613a5e565b604082019050919050565b5f6020820190508181035f830152613ae581613aac565b9050919050565b5f81519050919050565b5f82825260208201905092915050565b5f613b1082613aec565b613b1a8185613af6565b9350613b2a818560208601612598565b613b33816125a6565b840191505092915050565b5f608082019050613b515f83018761269c565b613b5e602083018661269c565b613b6b604083018561272c565b8181036060830152613b7d8184613b06565b905095945050505050565b5f81519050613b96816124f6565b92915050565b5f60208284031215613bb157613bb06124c3565b5b5f613bbe84828501613b88565b91505092915050565b5f613bd18261260e565b9150613bdc8361260e565b9250828202613bea8161260e565b91508282048414831517613c0157613c0061374d565b5b5092915050565b5f613c128261260e565b9150613c1d8361260e565b9250828201905080821115613c3557613c3461374d565b5b92915050565b7f4e487b71000000000000000000000000000000000000000000000000000000005f52603260045260245ffd5b5f613c728261260e565b91505f8203613c8457613c8361374d565b5b600182039050919050565b5f604082019050613ca25f83018561272c565b613caf602083018461272c565b9392505050565b7f4e487b71000000000000000000000000000000000000000000000000000000005f52601260045260245ffd5b5f613ced8261260e565b9150613cf88361260e565b925082613d0857613d07613cb6565b5b828204905092915050565b5f604082019050613d265f83018561269c565b613d33602083018461272c565b939250505056fea26469706673582212203b6c84b7e8c5cf791c79595005e897592d25bebbad885a8a3a5ef0240966a70464736f6c634300081c0033",
  "linkReferences": {},
  "deployedLinkReferences": {}
}